8=FIX.4.4|9=73|35=A|34=1|49=TEST80129|52=20230622-01:30:41.497|56=QFXPRICES|98=0|108=30|10=247|
8=FIX.4.4|9=73|35=A|34=2|49=TEST80129|52=20230622-01:36:39.936|56=QFXPRICES|98=0|108=30|10=003|
8=FIX.4.4|9=73|35=A|34=3|49=TEST80129|52=20230622-01:38:19.546|56=QFXPRICES|98=0|108=30|10=001|
8=FIX.4.4|9=73|35=A|34=4|49=TEST80129|52=20230622-01:44:05.237|56=QFXPRICES|98=0|108=30|10=247|
8=FIX.4.4|9=88|35=A|34=5|49=TEST80129|52=20230622-01:48:42.490|56=QFXPRICES|553=test80129|554=fd55ds64|10=219|
8=FIX.4.4|9=73|35=A|34=6|49=TEST80129|52=20230622-01:48:42.525|56=QFXPRICES|98=0|108=30|10=254|
8=FIX.4.4|9=88|35=A|34=7|49=TEST80129|52=20230622-01:48:43.540|56=QFXPRICES|553=test80129|554=fd55ds64|10=218|
8=FIX.4.4|9=88|35=A|34=8|49=TEST80129|52=20230622-01:48:44.550|56=QFXPRICES|553=test80129|554=fd55ds64|10=221|
8=FIX.4.4|9=88|35=A|34=9|49=TEST80129|52=20230622-01:48:45.559|56=QFXPRICES|553=test80129|554=fd55ds64|10=232|
8=FIX.4.4|9=89|35=A|34=10|49=TEST80129|52=20230622-01:48:46.573|56=QFXPRICES|553=test80129|554=fd55ds64|10=014|
8=FIX.4.4|9=89|35=A|34=11|49=TEST80129|52=20230622-01:48:47.585|56=QFXPRICES|553=test80129|554=fd55ds64|10=019|
8=FIX.4.4|9=89|35=A|34=12|49=TEST80129|52=20230622-01:48:48.596|56=QFXPRICES|553=test80129|554=fd55ds64|10=023|
8=FIX.4.4|9=89|35=A|34=13|49=TEST80129|52=20230622-01:48:49.599|56=QFXPRICES|553=test80129|554=fd55ds64|10=028|
8=FIX.4.4|9=89|35=A|34=14|49=TEST80129|52=20230622-01:48:50.614|56=QFXPRICES|553=test80129|554=fd55ds64|10=009|
8=FIX.4.4|9=89|35=A|34=15|49=TEST80129|52=20230622-01:48:51.625|56=QFXPRICES|553=test80129|554=fd55ds64|10=013|
8=FIX.4.4|9=89|35=A|34=16|49=TEST80129|52=20230622-01:48:52.634|56=QFXPRICES|553=test80129|554=fd55ds64|10=015|
8=FIX.4.4|9=89|35=A|34=17|49=TEST80129|52=20230622-01:48:53.635|56=QFXPRICES|553=test80129|554=fd55ds64|10=018|
8=FIX.4.4|9=74|35=A|34=18|49=TEST80129|52=20230622-01:52:07.483|56=QFXPRICES|98=0|108=30|10=049|
8=FIX.4.4|9=74|35=A|34=19|49=TEST80129|52=20230622-02:43:56.703|56=QFXPRICES|98=0|108=30|10=050|
8=FIX.4.4|9=89|35=A|34=20|49=TEST80129|52=20230622-02:43:56.742|56=QFXPRICES|553=test80129|554=fd55ds64|10=010|
8=FIX.4.4|9=89|35=A|34=21|49=TEST80129|52=20230622-02:43:57.752|56=QFXPRICES|553=test80129|554=fd55ds64|10=013|
8=FIX.4.4|9=89|35=A|34=22|49=TEST80129|52=20230622-02:43:58.758|56=QFXPRICES|553=test80129|554=fd55ds64|10=021|
8=FIX.4.4|9=89|35=A|34=23|49=TEST80129|52=20230622-02:43:59.774|56=QFXPRICES|553=test80129|554=fd55ds64|10=021|
8=FIX.4.4|9=89|35=A|34=24|49=TEST80129|52=20230622-02:44:00.788|56=QFXPRICES|553=test80129|554=fd55ds64|10=014|
8=FIX.4.4|9=89|35=A|34=25|49=TEST80129|52=20230622-02:44:01.804|56=QFXPRICES|553=test80129|554=fd55ds64|10=005|
8=FIX.4.4|9=89|35=A|34=26|49=TEST80129|52=20230622-02:44:02.814|56=QFXPRICES|553=test80129|554=fd55ds64|10=008|
8=FIX.4.4|9=74|35=A|34=27|49=TEST80129|52=20230622-02:47:19.495|56=QFXPRICES|98=0|108=30|10=060|
8=FIX.4.4|9=74|35=A|34=28|49=TEST80129|52=20230622-02:51:25.903|56=QFXPRICES|98=0|108=30|10=047|
8=FIX.4.4|9=74|35=A|34=29|49=TEST80129|52=20230622-02:53:14.800|56=QFXPRICES|98=0|108=30|10=044|
8=FIX.4.4|9=74|35=A|34=30|49=TEST80129|52=20230622-02:56:40.700|56=QFXPRICES|98=0|108=30|10=037|
8=FIX.4.4|9=74|35=A|34=31|49=TEST80129|52=20230622-02:57:22.349|56=QFXPRICES|98=0|108=30|10=048|
8=FIX.4.4|9=89|35=A|34=32|49=TEST80129|52=20230622-03:01:02.300|56=QFXPRICES|553=test80129|554=fd55ds64|10=245|
8=FIX.4.4|9=74|35=A|34=33|49=TEST80129|52=20230622-03:01:02.345|56=QFXPRICES|98=0|108=30|10=034|
8=FIX.4.4|9=89|35=A|34=34|49=TEST80129|52=20230622-03:01:03.346|56=QFXPRICES|553=test80129|554=fd55ds64|10=002|
8=FIX.4.4|9=89|35=A|34=35|49=TEST80129|52=20230622-03:01:04.361|56=QFXPRICES|553=test80129|554=fd55ds64|10=001|
8=FIX.4.4|9=89|35=A|34=36|49=TEST80129|52=20230622-03:01:05.377|56=QFXPRICES|553=test80129|554=fd55ds64|10=010|
8=FIX.4.4|9=89|35=A|34=37|49=TEST80129|52=20230622-03:01:06.422|56=QFXPRICES|553=test80129|554=fd55ds64|10=003|
8=FIX.4.4|9=89|35=A|34=38|49=TEST80129|52=20230622-03:01:07.435|56=QFXPRICES|553=test80129|554=fd55ds64|10=009|
8=FIX.4.4|9=74|35=A|34=39|49=TEST80129|52=20230622-03:04:33.673|56=QFXPRICES|98=0|108=30|10=051|
8=FIX.4.4|9=106|35=A|34=1|49=TEST80129|52=20230622-03:04:33.706|56=QFXPRICES|98=0|108=30|141=Y|553=test80129|554=fd55ds64|10=062|
8=FIX.4.4|9=106|35=A|34=1|49=TEST80129|52=20230622-03:04:34.728|56=QFXPRICES|98=0|108=30|141=Y|553=test80129|554=fd55ds64|10=067|
8=FIX.4.4|9=106|35=A|34=1|49=TEST80129|52=20230622-03:04:35.754|56=QFXPRICES|98=0|108=30|141=Y|553=test80129|554=fd55ds64|10=067|
8=FIX.4.4|9=106|35=A|34=1|49=TEST80129|52=20230622-03:04:36.782|56=QFXPRICES|98=0|108=30|141=Y|553=test80129|554=fd55ds64|10=069|
8=FIX.4.4|9=106|35=A|34=1|49=TEST80129|52=20230622-03:04:37.812|56=QFXPRICES|98=0|108=30|141=Y|553=test80129|554=fd55ds64|10=064|
8=FIX.4.4|9=106|35=A|34=1|49=TEST80129|52=20230622-03:04:38.838|56=QFXPRICES|98=0|108=30|141=Y|553=test80129|554=fd55ds64|10=073|
8=FIX.4.4|9=73|35=A|34=2|49=TEST80129|52=20230622-03:07:08.659|56=QFXPRICES|98=0|108=30|10=001|
8=FIX.4.4|9=106|35=A|34=1|49=TEST80129|52=20230622-03:07:08.682|56=QFXPRICES|98=0|108=30|141=Y|553=test80129|554=fd55ds64|10=070|
8=FIX.4.4|9=106|35=A|34=1|49=TEST80129|52=20230622-03:07:09.701|56=QFXPRICES|98=0|108=30|141=Y|553=test80129|554=fd55ds64|10=063|
8=FIX.4.4|9=106|35=A|34=1|49=TEST80129|52=20230622-03:07:10.730|56=QFXPRICES|98=0|108=30|141=Y|553=test80129|554=fd55ds64|10=057|
8=FIX.4.4|9=106|35=A|34=1|49=TEST80129|52=20230622-03:07:11.750|56=QFXPRICES|98=0|108=30|141=Y|553=test80129|554=fd55ds64|10=060|
8=FIX.4.4|9=73|35=A|34=2|49=TEST80129|52=20230622-03:19:10.826|56=QFXPRICES|98=0|108=30|10=249|
8=FIX.4.4|9=106|35=A|34=1|49=TEST80129|52=20230622-03:19:10.850|56=QFXPRICES|98=0|108=30|141=Y|553=test80129|554=fd55ds64|10=063|
8=FIX.4.4|9=106|35=A|34=1|49=TEST80129|52=20230622-03:19:11.874|56=QFXPRICES|98=0|108=30|141=Y|553=test80129|554=fd55ds64|10=070|
8=FIX.4.4|9=106|35=A|34=1|49=TEST80129|52=20230622-03:19:12.891|56=QFXPRICES|98=0|108=30|141=Y|553=test80129|554=fd55ds64|10=070|
8=FIX.4.4|9=106|35=A|34=1|49=TEST80129|52=20230622-03:19:13.917|56=QFXPRICES|98=0|108=30|141=Y|553=test80129|554=fd55ds64|10=070|
8=FIX.4.4|9=73|35=A|34=2|49=TEST80129|52=20230622-03:20:41.259|56=QFXPRICES|98=0|108=30|10=245|
8=FIX.4.4|9=106|35=A|34=1|49=TEST80129|52=20230622-03:20:41.283|56=QFXPRICES|98=0|108=30|141=Y|553=test80129|554=fd55ds64|10=059|
8=FIX.4.4|9=106|35=A|34=1|49=TEST80129|52=20230622-03:20:42.312|56=QFXPRICES|98=0|108=30|141=Y|553=test80129|554=fd55ds64|10=053|
8=FIX.4.4|9=106|35=A|34=1|49=TEST80129|52=20230622-03:20:43.341|56=QFXPRICES|98=0|108=30|141=Y|553=test80129|554=fd55ds64|10=056|
8=FIX.4.4|9=106|35=A|34=1|49=TEST80129|52=20230622-03:20:44.370|56=QFXPRICES|98=0|108=30|141=Y|553=test80129|554=fd55ds64|10=059|
8=FIX.4.4|9=106|35=A|34=1|49=TEST80129|52=20230622-03:20:45.388|56=QFXPRICES|98=0|108=30|141=Y|553=test80129|554=fd55ds64|10=069|
8=FIX.4.4|9=73|35=A|34=2|49=TEST80129|52=20230622-11:06:48.857|56=QFXPRICES|98=0|108=30|10=003|
8=FIX.4.4|9=106|35=A|34=1|49=TEST80129|52=20230622-11:06:48.893|56=QFXPRICES|98=0|108=30|141=Y|553=test80129|554=fd55ds64|10=076|
8=FIX.4.4|9=106|35=A|34=1|49=TEST80129|52=20230622-11:06:49.915|56=QFXPRICES|98=0|108=30|141=Y|553=test80129|554=fd55ds64|10=072|
8=FIX.4.4|9=106|35=A|34=1|49=TEST80129|52=20230622-11:06:50.944|56=QFXPRICES|98=0|108=30|141=Y|553=test80129|554=fd55ds64|10=066|
8=FIX.4.4|9=106|35=A|34=1|49=TEST80129|52=20230622-11:06:51.970|56=QFXPRICES|98=0|108=30|141=Y|553=test80129|554=fd55ds64|10=066|
8=FIX.4.4|9=106|35=A|34=1|49=TEST80129|52=20230622-11:11:02.923|56=QFXPRICES|98=0|108=30|141=Y|553=test80129|554=fd55ds64|10=056|
8=FIX.4.4|9=73|35=A|34=2|49=TEST80129|52=20230622-11:11:02.975|56=QFXPRICES|98=0|108=30|10=246|
8=FIX.4.4|9=79|35=A|34=1|49=QFXPRICES|52=20230622-11:11:03.691|56=TEST80129|98=0|108=30|141=Y|10=036|
8=FIX.4.4|9=119|35=5|34=3|49=TEST80129|52=20230622-11:11:03.222|56=QFXPRICES|58=Invalid Logon message: Required tag missing, field=553|10=198|
8=FIX.4.4|9=106|35=A|34=1|49=TEST80129|52=20230622-11:11:03.982|56=QFXPRICES|98=0|108=30|141=Y|553=test80129|554=fd55ds64|10=062|
8=FIX.4.4|9=106|35=A|34=1|49=TEST80129|52=20230622-11:11:05.014|56=QFXPRICES|98=0|108=30|141=Y|553=test80129|554=fd55ds64|10=050|
8=FIX.4.4|9=106|35=A|34=1|49=TEST80129|52=20230622-11:11:06.040|56=QFXPRICES|98=0|108=30|141=Y|553=test80129|554=fd55ds64|10=050|
8=FIX.4.4|9=73|35=A|34=2|49=TEST80129|52=20230622-11:15:12.359|56=QFXPRICES|98=0|108=30|10=247|
8=FIX.4.4|9=106|35=A|34=1|49=TEST80129|52=20230622-11:15:12.400|56=QFXPRICES|98=0|108=30|141=Y|553=test80129|554=fd55ds64|10=051|
8=FIX.4.4|9=106|35=A|34=1|49=TEST80129|52=20230622-11:15:13.427|56=QFXPRICES|98=0|108=30|141=Y|553=test80129|554=fd55ds64|10=061|
8=FIX.4.4|9=73|35=A|34=2|49=TEST80129|52=20230622-11:27:26.119|56=QFXPRICES|98=0|108=30|10=249|
8=FIX.4.4|9=107|35=A|34=1|49=TEST80129|52=20230622-11:27:26.159|56=QFXPRICES|98=0|108=30|141=Y|553=test80129|554=yt45ss678|10=179|
8=FIX.4.4|9=107|35=A|34=1|49=TEST80129|52=20230622-11:27:27.188|56=QFXPRICES|98=0|108=30|141=Y|553=test80129|554=yt45ss678|10=182|
8=FIX.4.4|9=107|35=A|34=1|49=TEST80129|52=20230622-11:27:28.212|56=QFXPRICES|98=0|108=30|141=Y|553=test80129|554=yt45ss678|10=171|
8=FIX.4.4|9=107|35=A|34=1|49=TEST80129|52=20230622-11:27:29.241|56=QFXPRICES|98=0|108=30|141=Y|553=test80129|554=yt45ss678|10=174|
8=FIX.4.4|9=107|35=A|34=1|49=TEST80129|52=20230622-11:27:30.268|56=QFXPRICES|98=0|108=30|141=Y|553=test80129|554=yt45ss678|10=175|
8=FIX.4.4|9=73|35=A|34=2|49=TEST80129|52=20230622-11:28:31.447|56=QFXPRICES|98=0|108=30|10=250|
8=FIX.4.4|9=107|35=A|34=1|49=TEST80129|52=20230622-11:28:31.484|56=QFXPRICES|98=0|108=30|141=Y|553=test80129|554=yt45ss678|10=177|
8=FIX.4.4|9=107|35=A|34=1|49=TEST80129|52=20230622-11:28:32.514|56=QFXPRICES|98=0|108=30|141=Y|553=test80129|554=yt45ss678|10=172|
8=FIX.4.4|9=107|35=A|34=1|49=TEST80129|52=20230622-11:28:33.540|56=QFXPRICES|98=0|108=30|141=Y|553=test80129|554=yt45ss678|10=172|
8=FIX.4.4|9=107|35=A|34=1|49=TEST80129|52=20230622-11:28:34.567|56=QFXPRICES|98=0|108=30|141=Y|553=test80129|554=yt45ss678|10=182|
8=FIX.4.4|9=73|35=A|34=2|49=TEST80129|52=20230622-11:29:57.688|56=QFXPRICES|98=0|108=30|10=010|
8=FIX.4.4|9=73|35=A|34=3|49=TEST80129|52=20230622-11:33:41.802|56=QFXPRICES|98=0|108=30|10=243|
8=FIX.4.4|9=73|35=A|34=4|49=TEST80129|52=20230622-11:38:56.668|56=QFXPRICES|98=0|108=30|10=009|
8=FIX.4.4|9=73|35=A|34=5|49=TEST80129|52=20230622-11:50:23.659|56=QFXPRICES|98=0|108=30|10=254|
8=FIX.4.4|9=73|35=A|34=6|49=TEST80129|52=20230622-11:58:59.006|56=QFXPRICES|98=0|108=30|10=002|
8=FIX.4.4|9=88|35=A|34=7|49=TEST80129|52=20230622-11:58:59.043|56=QFXPRICES|553=test80129|554=fd55ds64|10=225|
8=FIX.4.4|9=88|35=A|34=8|49=TEST80129|52=20230622-11:59:00.056|56=QFXPRICES|553=test80129|554=fd55ds64|10=217|
8=FIX.4.4|9=88|35=A|34=9|49=TEST80129|52=20230622-11:59:01.068|56=QFXPRICES|553=test80129|554=fd55ds64|10=222|
8=FIX.4.4|9=89|35=A|34=10|49=TEST80129|52=20230622-11:59:02.081|56=QFXPRICES|553=test80129|554=fd55ds64|10=003|
8=FIX.4.4|9=89|35=A|34=11|49=TEST80129|52=20230622-11:59:03.085|56=QFXPRICES|553=test80129|554=fd55ds64|10=009|
8=FIX.4.4|9=89|35=A|34=12|49=TEST80129|52=20230622-11:59:04.086|56=QFXPRICES|553=test80129|554=fd55ds64|10=012|
8=FIX.4.4|9=89|35=A|34=13|49=TEST80129|52=20230622-12:03:11.814|56=QFXPRICES|553=test80129|554=fd55ds64|10=000|
8=FIX.4.4|9=74|35=A|34=14|49=TEST80129|52=20230622-12:03:11.855|56=QFXPRICES|98=0|108=30|10=041|
8=FIX.4.4|9=89|35=A|34=15|49=TEST80129|52=20230622-12:03:12.868|56=QFXPRICES|553=test80129|554=fd55ds64|10=012|
8=FIX.4.4|9=89|35=A|34=16|49=TEST80129|52=20230622-12:03:13.877|56=QFXPRICES|553=test80129|554=fd55ds64|10=014|
8=FIX.4.4|9=89|35=A|34=17|49=TEST80129|52=20230622-12:03:14.889|56=QFXPRICES|553=test80129|554=fd55ds64|10=019|
8=FIX.4.4|9=89|35=A|34=18|49=TEST80129|52=20230622-12:03:15.899|56=QFXPRICES|553=test80129|554=fd55ds64|10=022|
8=FIX.4.4|9=89|35=A|34=19|49=TEST80129|52=20230622-12:04:45.486|56=QFXPRICES|553=test80129|554=fd55ds64|10=019|
8=FIX.4.4|9=74|35=A|34=20|49=TEST80129|52=20230622-12:04:45.522|56=QFXPRICES|98=0|108=30|10=037|
8=FIX.4.4|9=89|35=A|34=21|49=TEST80129|52=20230622-12:04:46.524|56=QFXPRICES|553=test80129|554=fd55ds64|10=006|
8=FIX.4.4|9=89|35=A|34=22|49=TEST80129|52=20230622-12:05:55.216|56=QFXPRICES|553=test80129|554=fd55ds64|10=006|
8=FIX.4.4|9=74|35=A|34=23|49=TEST80129|52=20230622-12:05:55.258|56=QFXPRICES|98=0|108=30|10=048|
8=FIX.4.4|9=89|35=A|34=24|49=TEST80129|52=20230622-12:05:56.268|56=QFXPRICES|553=test80129|554=fd55ds64|10=016|
8=FIX.4.4|9=89|35=A|34=25|49=TEST80129|52=20230622-12:05:57.285|56=QFXPRICES|553=test80129|554=fd55ds64|10=017|
8=FIX.4.4|9=89|35=A|34=26|49=TEST80129|52=20230622-12:05:58.297|56=QFXPRICES|553=test80129|554=fd55ds64|10=022|
8=FIX.4.4|9=89|35=A|34=27|49=TEST80129|52=20230622-12:05:59.311|56=QFXPRICES|553=test80129|554=fd55ds64|10=011|
8=FIX.4.4|9=89|35=A|34=28|49=TEST80129|52=20230622-12:06:00.324|56=QFXPRICES|553=test80129|554=fd55ds64|10=003|
8=FIX.4.4|9=89|35=A|34=29|49=TEST80129|52=20230622-12:06:01.335|56=QFXPRICES|553=test80129|554=fd55ds64|10=007|
8=FIX.4.4|9=89|35=A|34=30|49=TEST80129|52=20230622-12:06:02.345|56=QFXPRICES|553=test80129|554=fd55ds64|10=001|
8=FIX.4.4|9=89|35=A|34=31|49=TEST80129|52=20230622-12:06:03.358|56=QFXPRICES|553=test80129|554=fd55ds64|10=007|
8=FIX.4.4|9=89|35=A|34=32|49=TEST80129|52=20230622-12:06:04.372|56=QFXPRICES|553=test80129|554=fd55ds64|10=005|
8=FIX.4.4|9=89|35=A|34=33|49=TEST80129|52=20230622-12:06:05.377|56=QFXPRICES|553=test80129|554=fd55ds64|10=012|
8=FIX.4.4|9=89|35=A|34=34|49=TEST80129|52=20230622-12:06:06.402|56=QFXPRICES|553=test80129|554=fd55ds64|10=003|
8=FIX.4.4|9=89|35=A|34=35|49=TEST80129|52=20230622-12:06:07.412|56=QFXPRICES|553=test80129|554=fd55ds64|10=006|
8=FIX.4.4|9=89|35=A|34=36|49=TEST80129|52=20230622-12:06:08.426|56=QFXPRICES|553=test80129|554=fd55ds64|10=013|
8=FIX.4.4|9=89|35=A|34=37|49=TEST80129|52=20230622-12:06:09.440|56=QFXPRICES|553=test80129|554=fd55ds64|10=011|
8=FIX.4.4|9=89|35=A|34=38|49=TEST80129|52=20230622-12:06:10.452|56=QFXPRICES|553=test80129|554=fd55ds64|10=007|
8=FIX.4.4|9=89|35=A|34=39|49=TEST80129|52=20230622-12:06:11.466|56=QFXPRICES|553=test80129|554=fd55ds64|10=014|
8=FIX.4.4|9=89|35=A|34=40|49=TEST80129|52=20230622-12:06:12.477|56=QFXPRICES|553=test80129|554=fd55ds64|10=009|
8=FIX.4.4|9=89|35=A|34=41|49=TEST80129|52=20230622-12:06:13.492|56=QFXPRICES|553=test80129|554=fd55ds64|10=008|
8=FIX.4.4|9=89|35=A|34=42|49=TEST80129|52=20230622-12:06:14.503|56=QFXPRICES|553=test80129|554=fd55ds64|10=003|
8=FIX.4.4|9=89|35=A|34=43|49=TEST80129|52=20230622-12:06:15.517|56=QFXPRICES|553=test80129|554=fd55ds64|10=010|
8=FIX.4.4|9=89|35=A|34=44|49=TEST80129|52=20230622-12:06:16.528|56=QFXPRICES|553=test80129|554=fd55ds64|10=014|
8=FIX.4.4|9=89|35=A|34=45|49=TEST80129|52=20230622-12:06:17.541|56=QFXPRICES|553=test80129|554=fd55ds64|10=011|
8=FIX.4.4|9=89|35=A|34=46|49=TEST80129|52=20230622-12:06:18.552|56=QFXPRICES|553=test80129|554=fd55ds64|10=015|
8=FIX.4.4|9=89|35=A|34=47|49=TEST80129|52=20230622-12:06:19.561|56=QFXPRICES|553=test80129|554=fd55ds64|10=017|
8=FIX.4.4|9=89|35=A|34=48|49=TEST80129|52=20230622-12:06:20.577|56=QFXPRICES|553=test80129|554=fd55ds64|10=017|
8=FIX.4.4|9=89|35=A|34=49|49=TEST80129|52=20230622-12:06:21.590|56=QFXPRICES|553=test80129|554=fd55ds64|10=014|
8=FIX.4.4|9=89|35=A|34=50|49=TEST80129|52=20230622-12:06:38.334|56=QFXPRICES|553=test80129|554=fd55ds64|10=010|
8=FIX.4.4|9=74|35=A|34=51|49=TEST80129|52=20230622-12:06:38.389|56=QFXPRICES|98=0|108=30|10=056|
8=FIX.4.4|9=89|35=A|34=52|49=TEST80129|52=20230622-12:06:39.403|56=QFXPRICES|553=test80129|554=fd55ds64|10=010|
8=FIX.4.4|9=89|35=A|34=53|49=TEST80129|52=20230622-12:06:40.415|56=QFXPRICES|553=test80129|554=fd55ds64|10=006|
8=FIX.4.4|9=89|35=A|34=54|49=TEST80129|52=20230622-12:06:41.431|56=QFXPRICES|553=test80129|554=fd55ds64|10=006|
8=FIX.4.4|9=89|35=A|34=55|49=TEST80129|52=20230622-12:06:42.432|56=QFXPRICES|553=test80129|554=fd55ds64|10=009|
8=FIX.4.4|9=89|35=A|34=56|49=TEST80129|52=20230622-12:06:43.445|56=QFXPRICES|553=test80129|554=fd55ds64|10=015|
8=FIX.4.4|9=89|35=A|34=57|49=TEST80129|52=20230622-12:06:44.458|56=QFXPRICES|553=test80129|554=fd55ds64|10=021|
8=FIX.4.4|9=89|35=A|34=58|49=TEST80129|52=20230622-12:06:45.470|56=QFXPRICES|553=test80129|554=fd55ds64|10=017|
8=FIX.4.4|9=89|35=A|34=59|49=TEST80129|52=20230622-12:06:46.482|56=QFXPRICES|553=test80129|554=fd55ds64|10=022|
8=FIX.4.4|9=89|35=A|34=60|49=TEST80129|52=20230622-12:06:47.495|56=QFXPRICES|553=test80129|554=fd55ds64|10=019|
8=FIX.4.4|9=89|35=A|34=61|49=TEST80129|52=20230622-14:52:21.884|56=QFXPRICES|553=test80129|554=fd55ds64|10=017|
8=FIX.4.4|9=74|35=A|34=62|49=TEST80129|52=20230622-14:52:21.922|56=QFXPRICES|98=0|108=30|10=046|
8=FIX.4.4|9=89|35=A|34=63|49=TEST80129|52=20230622-14:52:22.930|56=QFXPRICES|553=test80129|554=fd55ds64|10=012|
8=FIX.4.4|9=89|35=A|34=64|49=TEST80129|52=20230622-14:52:23.943|56=QFXPRICES|553=test80129|554=fd55ds64|10=018|
8=FIX.4.4|9=89|35=A|34=65|49=TEST80129|52=20230622-14:52:24.968|56=QFXPRICES|553=test80129|554=fd55ds64|10=027|
8=FIX.4.4|9=89|35=A|34=66|49=TEST80129|52=20230622-14:52:25.982|56=QFXPRICES|553=test80129|554=fd55ds64|10=025|
8=FIX.4.4|9=89|35=A|34=67|49=TEST80129|52=20230622-14:55:19.517|56=QFXPRICES|553=test80129|554=fd55ds64|10=026|
8=FIX.4.4|9=74|35=A|34=68|49=TEST80129|52=20230622-14:55:20.513|56=QFXPRICES|98=0|108=30|10=050|
8=FIX.4.4|9=89|35=A|34=69|49=TEST80129|52=20230622-14:56:58.182|56=QFXPRICES|553=test80129|554=fd55ds64|10=030|
8=FIX.4.4|9=74|35=A|34=70|49=TEST80129|52=20230622-14:56:59.164|56=QFXPRICES|98=0|108=30|10=058|
8=FIX.4.4|9=89|35=A|34=71|49=TEST80129|52=20230622-15:55:54.283|56=QFXPRICES|553=test80129|554=fd55ds64|10=021|
8=FIX.4.4|9=74|35=A|34=72|49=TEST80129|52=20230622-15:55:55.290|56=QFXPRICES|98=0|108=30|10=056|
8=FIX.4.4|9=89|35=A|34=73|49=TEST80129|52=20230707-02:01:35.363|56=QFXPRICES|553=test80129|554=fd55ds64|10=012|
8=FIX.4.4|9=74|35=A|34=74|49=TEST80129|52=20230707-02:01:36.350|56=QFXPRICES|98=0|108=30|10=045|
8=FIX.4.4|9=89|35=A|34=75|49=TEST80129|52=20230707-02:16:55.174|56=QFXPRICES|553=test80129|554=fd55ds64|10=022|
8=FIX.4.4|9=74|35=A|34=76|49=TEST80129|52=20230707-02:16:56.162|56=QFXPRICES|98=0|108=30|10=056|
8=FIX.4.4|9=74|35=A|34=77|49=TEST80129|52=20230708-23:29:52.979|56=QFXPRICES|98=0|108=30|10=077|
8=FIX.4.4|9=79|35=A|34=1|49=TEST80129|52=20230708-23:47:16.407|56=QFXPRICES|98=0|108=20|141=Y|10=051|
8=FIX.4.4|9=79|35=A|34=1|49=TEST80129|52=20230708-23:49:42.396|56=QFXPRICES|98=0|108=20|141=Y|10=059|
8=FIX.4.4|9=79|35=A|34=1|49=TEST80129|52=20230708-23:50:10.258|56=QFXPRICES|98=0|108=20|141=Y|10=043|
8=FIX.4.4|9=79|35=A|34=1|49=TEST80129|52=20230708-23:53:03.859|56=QFXPRICES|98=0|108=20|141=Y|10=055|
8=FIX.4.4|9=79|35=A|34=1|49=TEST80129|52=20230708-23:55:23.040|56=QFXPRICES|98=0|108=20|141=Y|10=041|
8=FIX.4.4|9=79|35=A|34=1|49=TEST80129|52=20230709-05:44:10.536|56=QFXPRICES|98=0|108=20|141=Y|10=046|
8=FIX.4.4|9=79|35=A|34=1|49=TEST80129|52=20230709-06:27:04.642|56=QFXPRICES|98=0|108=20|141=Y|10=049|
