8=FIX.4.4|9=107|35=A|34=1|49=TEST80129|52=20230622-11:28:34.567|56=QFXPRICES|98=0|108=30|141=Y|553=test80129|554=yt45ss678|10=182|8=FIX.4.4|9=73|35=A|34=2|49=TEST80129|52=20230622-11:29:57.688|56=QFXPRICES|98=0|108=30|10=010|8=FIX.4.4|9=73|35=A|34=3|49=TEST80129|52=20230622-11:33:41.802|56=QFXPRICES|98=0|108=30|10=243|8=FIX.4.4|9=73|35=A|34=4|49=TEST80129|52=20230622-11:38:56.668|56=QFXPRICES|98=0|108=30|10=009|8=FIX.4.4|9=73|35=A|34=5|49=TEST80129|52=20230622-11:50:23.659|56=QFXPRICES|98=0|108=30|10=254|8=FIX.4.4|9=73|35=A|34=6|49=TEST80129|52=20230622-11:58:59.006|56=QFXPRICES|98=0|108=30|10=002|8=FIX.4.4|9=88|35=A|34=7|49=TEST80129|52=20230622-11:58:59.043|56=QFXPRICES|553=test80129|554=fd55ds64|10=225|8=FIX.4.4|9=88|35=A|34=8|49=TEST80129|52=20230622-11:59:00.056|56=QFXPRICES|553=test80129|554=fd55ds64|10=217|8=FIX.4.4|9=88|35=A|34=9|49=TEST80129|52=20230622-11:59:01.068|56=QFXPRICES|553=test80129|554=fd55ds64|10=222|8=FIX.4.4|9=89|35=A|34=10|49=TEST80129|52=20230622-11:59:02.081|56=QFXPRICES|553=test80129|554=fd55ds64|10=003|8=FIX.4.4|9=89|35=A|34=11|49=TEST80129|52=20230622-11:59:03.085|56=QFXPRICES|553=test80129|554=fd55ds64|10=009|8=FIX.4.4|9=89|35=A|34=12|49=TEST80129|52=20230622-11:59:04.086|56=QFXPRICES|553=test80129|554=fd55ds64|10=012|8=FIX.4.4|9=89|35=A|34=13|49=TEST80129|52=20230622-12:03:11.814|56=QFXPRICES|553=test80129|554=fd55ds64|10=000|8=FIX.4.4|9=74|35=A|34=14|49=TEST80129|52=20230622-12:03:11.855|56=QFXPRICES|98=0|108=30|10=041|8=FIX.4.4|9=89|35=A|34=15|49=TEST80129|52=20230622-12:03:12.868|56=QFXPRICES|553=test80129|554=fd55ds64|10=012|8=FIX.4.4|9=89|35=A|34=16|49=TEST80129|52=20230622-12:03:13.877|56=QFXPRICES|553=test80129|554=fd55ds64|10=014|8=FIX.4.4|9=89|35=A|34=17|49=TEST80129|52=20230622-12:03:14.889|56=QFXPRICES|553=test80129|554=fd55ds64|10=019|8=FIX.4.4|9=89|35=A|34=18|49=TEST80129|52=20230622-12:03:15.899|56=QFXPRICES|553=test80129|554=fd55ds64|10=022|8=FIX.4.4|9=89|35=A|34=19|49=TEST80129|52=20230622-12:04:45.486|56=QFXPRICES|553=test80129|554=fd55ds64|10=019|8=FIX.4.4|9=74|35=A|34=20|49=TEST80129|52=20230622-12:04:45.522|56=QFXPRICES|98=0|108=30|10=037|8=FIX.4.4|9=89|35=A|34=21|49=TEST80129|52=20230622-12:04:46.524|56=QFXPRICES|553=test80129|554=fd55ds64|10=006|8=FIX.4.4|9=89|35=A|34=22|49=TEST80129|52=20230622-12:05:55.216|56=QFXPRICES|553=test80129|554=fd55ds64|10=006|8=FIX.4.4|9=74|35=A|34=23|49=TEST80129|52=20230622-12:05:55.258|56=QFXPRICES|98=0|108=30|10=048|8=FIX.4.4|9=89|35=A|34=24|49=TEST80129|52=20230622-12:05:56.268|56=QFXPRICES|553=test80129|554=fd55ds64|10=016|8=FIX.4.4|9=89|35=A|34=25|49=TEST80129|52=20230622-12:05:57.285|56=QFXPRICES|553=test80129|554=fd55ds64|10=017|8=FIX.4.4|9=89|35=A|34=26|49=TEST80129|52=20230622-12:05:58.297|56=QFXPRICES|553=test80129|554=fd55ds64|10=022|8=FIX.4.4|9=89|35=A|34=27|49=TEST80129|52=20230622-12:05:59.311|56=QFXPRICES|553=test80129|554=fd55ds64|10=011|8=FIX.4.4|9=89|35=A|34=28|49=TEST80129|52=20230622-12:06:00.324|56=QFXPRICES|553=test80129|554=fd55ds64|10=003|8=FIX.4.4|9=89|35=A|34=29|49=TEST80129|52=20230622-12:06:01.335|56=QFXPRICES|553=test80129|554=fd55ds64|10=007|8=FIX.4.4|9=89|35=A|34=30|49=TEST80129|52=20230622-12:06:02.345|56=QFXPRICES|553=test80129|554=fd55ds64|10=001|8=FIX.4.4|9=89|35=A|34=31|49=TEST80129|52=20230622-12:06:03.358|56=QFXPRICES|553=test80129|554=fd55ds64|10=007|8=FIX.4.4|9=89|35=A|34=32|49=TEST80129|52=20230622-12:06:04.372|56=QFXPRICES|553=test80129|554=fd55ds64|10=005|8=FIX.4.4|9=89|35=A|34=33|49=TEST80129|52=20230622-12:06:05.377|56=QFXPRICES|553=test80129|554=fd55ds64|10=012|8=FIX.4.4|9=89|35=A|34=34|49=TEST80129|52=20230622-12:06:06.402|56=QFXPRICES|553=test80129|554=fd55ds64|10=003|8=FIX.4.4|9=89|35=A|34=35|49=TEST80129|52=20230622-12:06:07.412|56=QFXPRICES|553=test80129|554=fd55ds64|10=006|8=FIX.4.4|9=89|35=A|34=36|49=TEST80129|52=20230622-12:06:08.426|56=QFXPRICES|553=test80129|554=fd55ds64|10=013|8=FIX.4.4|9=89|35=A|34=37|49=TEST80129|52=20230622-12:06:09.440|56=QFXPRICES|553=test80129|554=fd55ds64|10=011|8=FIX.4.4|9=89|35=A|34=38|49=TEST80129|52=20230622-12:06:10.452|56=QFXPRICES|553=test80129|554=fd55ds64|10=007|8=FIX.4.4|9=89|35=A|34=39|49=TEST80129|52=20230622-12:06:11.466|56=QFXPRICES|553=test80129|554=fd55ds64|10=014|8=FIX.4.4|9=89|35=A|34=40|49=TEST80129|52=20230622-12:06:12.477|56=QFXPRICES|553=test80129|554=fd55ds64|10=009|8=FIX.4.4|9=89|35=A|34=41|49=TEST80129|52=20230622-12:06:13.492|56=QFXPRICES|553=test80129|554=fd55ds64|10=008|8=FIX.4.4|9=89|35=A|34=42|49=TEST80129|52=20230622-12:06:14.503|56=QFXPRICES|553=test80129|554=fd55ds64|10=003|8=FIX.4.4|9=89|35=A|34=43|49=TEST80129|52=20230622-12:06:15.517|56=QFXPRICES|553=test80129|554=fd55ds64|10=010|8=FIX.4.4|9=89|35=A|34=44|49=TEST80129|52=20230622-12:06:16.528|56=QFXPRICES|553=test80129|554=fd55ds64|10=014|8=FIX.4.4|9=89|35=A|34=45|49=TEST80129|52=20230622-12:06:17.541|56=QFXPRICES|553=test80129|554=fd55ds64|10=011|8=FIX.4.4|9=89|35=A|34=46|49=TEST80129|52=20230622-12:06:18.552|56=QFXPRICES|553=test80129|554=fd55ds64|10=015|8=FIX.4.4|9=89|35=A|34=47|49=TEST80129|52=20230622-12:06:19.561|56=QFXPRICES|553=test80129|554=fd55ds64|10=017|8=FIX.4.4|9=89|35=A|34=48|49=TEST80129|52=20230622-12:06:20.577|56=QFXPRICES|553=test80129|554=fd55ds64|10=017|8=FIX.4.4|9=89|35=A|34=49|49=TEST80129|52=20230622-12:06:21.590|56=QFXPRICES|553=test80129|554=fd55ds64|10=014|8=FIX.4.4|9=89|35=A|34=50|49=TEST80129|52=20230622-12:06:38.334|56=QFXPRICES|553=test80129|554=fd55ds64|10=010|8=FIX.4.4|9=74|35=A|34=51|49=TEST80129|52=20230622-12:06:38.389|56=QFXPRICES|98=0|108=30|10=056|8=FIX.4.4|9=89|35=A|34=52|49=TEST80129|52=20230622-12:06:39.403|56=QFXPRICES|553=test80129|554=fd55ds64|10=010|8=FIX.4.4|9=89|35=A|34=53|49=TEST80129|52=20230622-12:06:40.415|56=QFXPRICES|553=test80129|554=fd55ds64|10=006|8=FIX.4.4|9=89|35=A|34=54|49=TEST80129|52=20230622-12:06:41.431|56=QFXPRICES|553=test80129|554=fd55ds64|10=006|8=FIX.4.4|9=89|35=A|34=55|49=TEST80129|52=20230622-12:06:42.432|56=QFXPRICES|553=test80129|554=fd55ds64|10=009|8=FIX.4.4|9=89|35=A|34=56|49=TEST80129|52=20230622-12:06:43.445|56=QFXPRICES|553=test80129|554=fd55ds64|10=015|8=FIX.4.4|9=89|35=A|34=57|49=TEST80129|52=20230622-12:06:44.458|56=QFXPRICES|553=test80129|554=fd55ds64|10=021|8=FIX.4.4|9=89|35=A|34=58|49=TEST80129|52=20230622-12:06:45.470|56=QFXPRICES|553=test80129|554=fd55ds64|10=017|8=FIX.4.4|9=89|35=A|34=59|49=TEST80129|52=20230622-12:06:46.482|56=QFXPRICES|553=test80129|554=fd55ds64|10=022|8=FIX.4.4|9=89|35=A|34=60|49=TEST80129|52=20230622-12:06:47.495|56=QFXPRICES|553=test80129|554=fd55ds64|10=019|8=FIX.4.4|9=89|35=A|34=61|49=TEST80129|52=20230622-14:52:21.884|56=QFXPRICES|553=test80129|554=fd55ds64|10=017|8=FIX.4.4|9=74|35=A|34=62|49=TEST80129|52=20230622-14:52:21.922|56=QFXPRICES|98=0|108=30|10=046|8=FIX.4.4|9=89|35=A|34=63|49=TEST80129|52=20230622-14:52:22.930|56=QFXPRICES|553=test80129|554=fd55ds64|10=012|8=FIX.4.4|9=89|35=A|34=64|49=TEST80129|52=20230622-14:52:23.943|56=QFXPRICES|553=test80129|554=fd55ds64|10=018|8=FIX.4.4|9=89|35=A|34=65|49=TEST80129|52=20230622-14:52:24.968|56=QFXPRICES|553=test80129|554=fd55ds64|10=027|8=FIX.4.4|9=89|35=A|34=66|49=TEST80129|52=20230622-14:52:25.982|56=QFXPRICES|553=test80129|554=fd55ds64|10=025|8=FIX.4.4|9=89|35=A|34=67|49=TEST80129|52=20230622-14:55:19.517|56=QFXPRICES|553=test80129|554=fd55ds64|10=026|8=FIX.4.4|9=74|35=A|34=68|49=TEST80129|52=20230622-14:55:20.513|56=QFXPRICES|98=0|108=30|10=050|8=FIX.4.4|9=89|35=A|34=69|49=TEST80129|52=20230622-14:56:58.182|56=QFXPRICES|553=test80129|554=fd55ds64|10=030|8=FIX.4.4|9=74|35=A|34=70|49=TEST80129|52=20230622-14:56:59.164|56=QFXPRICES|98=0|108=30|10=058|8=FIX.4.4|9=89|35=A|34=71|49=TEST80129|52=20230622-15:55:54.283|56=QFXPRICES|553=test80129|554=fd55ds64|10=021|8=FIX.4.4|9=74|35=A|34=72|49=TEST80129|52=20230622-15:55:55.290|56=QFXPRICES|98=0|108=30|10=056|